:020000040800F2
:10000000000002205DF80008C95F0008CB5F00080F
:10001000CD5F0008CF5F0008D15F0008000000003E
:10002000000000000000000000000000B185000892
:10003000D35F0008000000004186000885860008A4
:10004000ADF80008ADF80008ADF80008ADF80008FC
:10005000ADF80008ADF80008ADF80008ADF80008EC
:10006000ADF80008ADF80008ADF80008ADF80008DC
:10007000ADF80008ADF80008ADF80008ADF80008CC
:10008000ADF80008ADF80008ADF80008ADF80008BC
:10009000ADF80008ADF80008ADF80008ADF80008AC
:1000A000ADF80008D55F0008ADF80008ADF800080D
:1000B000814200088D420008ADF80008ADF8000844
:1000C000ADF80008ADF80008ADF80008ADF800087C
:1000D000ADF80008ADF80008ADF80008ADF800086C
:1000E000ADF80008ADF80008ADF80008ADF800085C
:1000F000ADF80008ADF80008ADF80008ADF800084C
:10010000ADF80008ADF80008ADF80008ADF800083B
:10011000ADF80008ADF80008ADF80008ADF800082B
:10012000ADF80008ADF80008ADF80008ADF800081B
:10013000ADF80008E15F0008ADF80008ADF8000870
:10014000ADF80008ADF80008ADF80008ADF80008FB
:10015000ADF80008ADF80008ADF80008295900080E
:10016000ADF80008ADF80008ADF80008ADF80008DB
:10017000ADF80008ADF80008ADF800080000000078
:04018000ADF80008CE
:1001900010B5054C237833B9044B13B10448AFF3C1
:1001A00000800123237010BD8800002000000000A3
:1001B0002022010808B5034B1BB103490348AFF3E4
:1001C000008008BD000000008C00002020220108F3
:1001D000034613F8012B002AFBD1181A0138704787
:1001E00081F0004102E000BF83F0004330B54FEAE8
:1001F00041044FEA430594EA050F08BF90EA020F55
:100200001FBF54EA000C55EA020C7FEA645C7FEAE7
:10021000655C00F0E2804FEA5454D4EB5555B8BF0A
:100220006D420CDD2C4480EA020281EA030382EA7B
:10023000000083EA010180EA020281EA0303362D0D
:1002400088BF30BD11F0004F4FEA01314FF4801CE0
:100250004CEA113102D0404261EB410113F0004FF2
:100260004FEA03334CEA133302D0524263EB4303A9
:1002700094EA050F00F0A780A4F10104D5F1200E47
:100280000DDB02FA0EFC22FA05F2801841F10001A2
:1002900003FA0EF2801843FA05F359410EE0A5F176
:1002A00020050EF1200E012A03FA0EFC28BF4CF0A7
:1002B000020C43FA05F3C01851EBE37101F000455D
:1002C00007D54FF0000EDCF1000C7EEB00006EEB6A
:1002D0000101B1F5801F1BD3B1F5001F0CD34908F4
:1002E0005FEA30004FEA3C0C04F101044FEA44524B
:1002F00012F5800F80F09A80BCF1004F08BF5FEAD2
:10030000500C50F1000041EB045141EA050130BDB1
:100310005FEA4C0C404141EB010111F4801FA4F154
:100320000104E9D191F0000F04BF01460020B1FAA9
:1003300081F308BF2033A3F10B03B3F120020CDAE1
:100340000C3208DD02F1140CC2F10C0201FA0CF0BF
:1003500021FA02F10CE002F11402D8BFC2F1200C24
:1003600001FA02F120FA0CFCDCBF41EA0C019040DA
:10037000E41AA2BF01EB0451294330BD6FEA040423
:100380001F3C1CDA0C340EDC04F11404C4F120020E
:1003900020FA04F001FA02F340EA030021FA04F320
:1003A00045EA030130BDC4F10C04C4F1200220FA77
:1003B00002F001FA04F340EA0300294630BD21FAB5
:1003C00004F0294630BD94F0000F83F4801306BF7B
:1003D00081F480110134013D4EE77FEA645C18BF6F
:1003E0007FEA655C29D094EA050F08BF90EA020F06
:1003F00005D054EA000C04BF1946104630BD91EAFE
:10040000030F1EBF0021002030BD5FEA545C05D100
:100410004000494128BF41F0004130BD14F580043F
:100420003CBF01F5801130BD01F0004545F0FE41B3
:1004300041F470014FF0000030BD7FEA645C1ABFE8
:10044000194610467FEA655C1CBF0B46024650EA1F
:10045000013406BF52EA033591EA030F41F400214B
:1004600030BD00BF90F0000F04BF0021704730B5D1
:100470004FF4806404F132044FF000054FF00001A6
:1004800050E700BF90F0000F04BF0021704730B567
:100490004FF4806404F1320410F0004548BF40423C
:1004A0004FF000013EE700BF42004FEAE2014FEA91
:1004B00031014FEA02701FBF12F07F4393F07F4F6C
:1004C00081F06051704792F0000F14BF93F07F4F9E
:1004D000704730B54FF4607401F0004521F00041E1
:1004E00020E700BF50EA010208BF704730B54FF067
:1004F00000050AE050EA010208BF704730B511F06C
:10050000004502D5404261EB41014FF4806404F1A3
:1005100032045FEA915C3FF4DCAE4FF003025FEA25
:10052000DC0C18BF03325FEADC0C18BF033202EBAD
:10053000DC02C2F1200300FA03FC20FA02F001FA07
:1005400003FE40EA0E0021FA02F11444C1E600BFA6
:1005500070B54FF0FF0C4CF4E06C1CEA11541DBF59
:100560001CEA135594EA0C0F95EA0C0F00F0DEF824
:100570002C4481EA030621EA4C5123EA4C5350EA09
:10058000013518BF52EA033541F4801143F480135A
:1005900038D0A0FB02CE4FF00005E1FB02E506F0EB
:1005A0000042E0FB03E54FF00006E1FB03569CF040
:1005B000000F18BF4EF0010EA4F1FF04B6F5007F46
:1005C00064F5407404D25FEA4E0E6D4146EB0606B8
:1005D00042EAC62141EA55514FEAC52040EA5E5041
:1005E0004FEACE2EB4F1FD0C88BFBCF5E06F1ED8EB
:1005F000BEF1004F08BF5FEA500E50F1000041EB22
:10060000045170BD06F0004646EA010140EA0200CE
:1006100081EA0301B4EB5C04C2BFD4EB0C0541EAF0
:10062000045170BD41F480114FF0000E013C00F305
:10063000AB8014F1360FDEBF002001F0004170BD29
:10064000C4F10004203C35DA0C341BDC04F1140442
:10065000C4F1200500FA05F320FA04F001FA05F2CE
:1006600040EA020001F0004221F0004110EBD3709B
:1006700021FA04F642EB06015EEA430E08BF20EAC7
:10068000D37070BDC4F10C04C4F1200500FA04F36A
:1006900020FA05F001FA04F240EA020001F00041FC
:1006A00010EBD37041F100015EEA430E08BF20EA6F
:1006B000D37070BDC4F1200500FA05F24EEA020EB7
:1006C00020FA04F301FA05F243EA020321FA04F0E6
:1006D00001F0004121FA04F220EA020000EBD3709D
:1006E0005EEA430E08BF20EAD37070BD94F0000F9D
:1006F0000FD101F00046400041EB010111F4801FD1
:1007000008BF013CF7D041EA060195F0000F18BF81
:10071000704703F00046520043EB030313F4801FBD
:1007200008BF013DF7D043EA0603704794EA0C0F77
:100730000CEA135518BF95EA0C0F0CD050EA41068D
:1007400018BF52EA4306D1D181EA030101F000410A
:100750004FF0000070BD50EA410606BF1046194632
:1007600052EA430619D094EA0C0F02D150EA01363E
:1007700013D195EA0C0F05D152EA03361CBF10467F
:1007800019460AD181EA030101F0004141F0FE411E
:1007900041F470014FF0000070BD41F0FE4141F4A2
:1007A000780170BD70B54FF0FF0C4CF4E06C1CEAA2
:1007B00011541DBF1CEA135594EA0C0F95EA0C0F57
:1007C00000F0A7F8A4EB050481EA030E52EA033512
:1007D0004FEA013100F088804FEA03334FF0805533
:1007E00045EA131343EA12634FEA022245EA111560
:1007F00045EA10654FEA00260EF000419D4208BF11
:10080000964244F1FD0404F5407402D25B084FEABD
:100810003202B61A65EB03055B084FEA32024FF469
:1008200080104FF4002CB6EB020E75EB030E22BFC6
:10083000B61A754640EA0C005B084FEA3202B6EB86
:10084000020E75EB030E22BFB61A754640EA5C0035
:100850005B084FEA3202B6EB020E75EB030E22BFC5
:10086000B61A754640EA9C005B084FEA3202B6EBC6
:10087000020E75EB030E22BFB61A754640EADC0085
:1008800055EA060E18D04FEA051545EA16754FEAE7
:1008900006164FEAC30343EA52734FEAC2025FEA05
:1008A0001C1CC0D111F4801F0BD141EA00014FF094
:1008B00000004FF0004CB6E711F4801F04BF014365
:1008C0000020B4F1FD0C88BFBCF5E06F3FF6AFAE81
:1008D000B5EB030C04BFB6EB020C5FEA500C50F111
:1008E000000041EB045170BD0EF0004E4EEA113194
:1008F00014EB5C04C2BFD4EB0C0541EA045170BD9B
:1009000041F480114FF0000E013C90E645EA060EDE
:100910008DE60CEA135594EA0C0F08BF95EA0C0F0C
:100920003FF43BAF94EA0C0F0AD150EA01347FF454
:1009300034AF95EA0C0F7FF425AF104619462CE72B
:1009400095EA0C0F06D152EA03353FF4FDAE10468E
:10095000194622E750EA410618BF52EA43067FF4DF
:10096000C5AE50EA41047FF40DAF52EA43057FF46F
:10097000EBAE12E74FF0FF3C06E000BF4FF0010C7A
:1009800002E000BF4FF0010C4DF804CD4FEA410CDE
:100990007FEA6C5C4FEA430C18BF7FEA6C5C1BD0AB
:1009A00001B050EA410C0CBF52EA430C91EA030F2C
:1009B00002BF90EA020F0020704710F1000F91EA89
:1009C000030F58BF994208BF90422CBFD8176FEA57
:1009D000E37040F0010070474FEA410C7FEA6C5C25
:1009E00002D150EA013C07D14FEA430C7FEA6C5C2C
:1009F000D6D152EA033CD3D05DF8040B704700BF58
:100A00008446104662468C461946634600E000BFA5
:100A100001B5FFF7B7FF002848BF10F1000F01BD77
:100A20004DF808EDFFF7F4FF0CBF012000205DF842
:100A300008FB00BF4DF808EDFFF7EAFF34BF0120C7
:100A400000205DF808FB00BF4DF808EDFFF7E0FF60
:100A500094BF012000205DF808FB00BF4DF808EDB1
:100A6000FFF7CEFF94BF012000205DF808FB00BF18
:100A70004DF808EDFFF7C4FF34BF012000205DF8FA
:100A800008FB00BF4FEA410C7FEA6C5C02D150EAE0
:100A9000013C0AD14FEA430C7FEA6C5C02D152EA76
:100AA000033C02D14FF0000070474FF00100704747
:100AB0004FEA410212F5001215D211D56FF4787386
:100AC000B3EB625212D94FEAC12343F0004343EA29
:100AD000505311F0004F23FA02F018BF4042704704
:100AE0004FF00000704750EA013005D111F000408E
:100AF00008BF6FF0004070474FF00000704700BF24
:100B00004A0011D212F5001211D20DD56FF478738C
:100B1000B3EB62520ED44FEAC12343F0004343EAE1
:100B2000505323FA02F070474FF00000704750EA2C
:100B3000013002D14FF0FF3070474FF00000704796
:100B40004FEA4102B2F1E04324BFB3F5001CDCF1EF
:100B5000FE5C0DD901F0004C4FEAC0024CEA507027
:100B6000B2F1004F40EB830008BF20F00100704756
:100B700011F0804F21D113F13872BCBF01F0004059
:100B8000704741F480114FEA5252C2F11802C2F18B
:100B9000200C10FA0CF320FA02F018BF40F001000C
:100BA0004FEAC1234FEAD32303FA0CFC40EA0C00BE
:100BB00023FA02F34FEA4303CCE77FEA625307D1FB
:100BC00050EA01331EBF4FF0FE4040F44000704732
:100BD00001F0004040F0FE4040F40000704700BFCC
:100BE00080F0004002E000BF81F0004142001FBFE2
:100BF0005FEA410392EA030F7FEA226C7FEA236CEB
:100C00006AD04FEA1262D2EB1363C1BFD2184140DF
:100C100048404140B8BF5B42192B88BF704710F075
:100C2000004F40F4000020F07F4018BF404211F018
:100C3000004F41F4000121F07F4118BF494292EA80
:100C4000030F3FD0A2F1010241FA03FC10EB0C00AC
:100C5000C3F1200301FA03F100F0004302D5494239
:100C600060EB4000B0F5000F13D3B0F1807F06D3E6
:100C700040084FEA310102F10102FE2A51D2B1F1DE
:100C8000004F40EBC25008BF20F0010040EA0300D3
:100C90007047490040EB000010F4000FA2F1010280
:100CA000EDD1B0FA80FCACF1080CB2EB0C0200FA0A
:100CB0000CF0AABF00EBC25052421843BCBFD04058
:100CC0001843704792F0000F81F4000106BF80F4D2
:100CD00000000132013BB5E74FEA41037FEA226C95
:100CE00018BF7FEA236C21D092EA030F04D092F060
:100CF000000F08BF0846704790EA010F1CBF002094
:100D0000704712F07F4F04D1400028BF40F00040F0
:100D1000704712F100723CBF00F50000704700F010
:100D2000004343F0FE4040F4000070477FEA226237
:100D300016BF08467FEA23630146420206BF5FEA08
:100D4000412390EA010F40F4800070474FF0000308
:100D500004E000BF10F0004348BF40425FEA000CCF
:100D600008BF704743F0964301464FF000001CE077
:100D700050EA010208BF70474FF000030AE000BFCD
:100D800050EA010208BF704711F0004302D540420B
:100D900061EB41015FEA010C02BF8446014600207D
:100DA00043F0B64308BFA3F18053A3F50003BCFA98
:100DB0008CF2083AA3EBC25310DB01FA02FC634445
:100DC00000FA02FCC2F12002BCF1004F20FA02F24C
:100DD00043EB020008BF20F00100704702F120023F
:100DE00001FA02FCC2F1200250EA4C0021FA02F2A0
:100DF00043EB020008BF20EADC7070474FF0FF0CA5
:100E00001CEAD0521EBF1CEAD15392EA0C0F93EA9F
:100E10000C0F6FD01A4480EA010C400218BF5FEA41
:100E200041211ED04FF0006343EA501043EA5111B4
:100E3000A0FB01310CF00040B1F5000F3EBF4900AE
:100E400041EAD3715B0040EA010062F17F02FD2AB2
:100E50001DD8B3F1004F40EBC25008BF20F0010095
:100E6000704790F0000F0CF0004C08BF49024CEAAC
:100E7000502040EA51207F3AC2BFD2F1FF0340EA3E
:100E8000C250704740F400004FF00003013A5DDCAF
:100E900012F1190FDCBF00F000407047C2F10002F0
:100EA000410021FA02F1C2F1200200FA02FC5FEADD
:100EB000310040F1000053EA4C0308BF20EADC7027
:100EC000704792F0000F00F0004C02BF400010F499
:100ED000000F013AF9D040EA0C0093F0000F01F046
:100EE000004C02BF490011F4000F013BF9D041EA68
:100EF0000C018FE70CEAD15392EA0C0F18BF93EA6A
:100F00000C0F0AD030F0004C18BF31F0004CD8D193
:100F100080EA010000F00040704790F0000F17BF1A
:100F200090F0004F084691F0000F91F0004F14D060
:100F300092EA0C0F01D142020FD193EA0C0F03D1B8
:100F40004B0218BF084608D180EA010000F00040BB
:100F500040F0FE4040F40000704740F0FE4040F496
:100F6000400070474FF0FF0C1CEAD0521EBF1CEA35
:100F7000D15392EA0C0F93EA0C0F69D0A2EB030253
:100F800080EA010C49024FEA402037D04FF08053ED
:100F900043EA111143EA10130CF000408B4238BFB2
:100FA0005B0042F17D024FF4000C8B4224BF5B1AC0
:100FB00040EA0C00B3EB510F24BFA3EB510340EA0E
:100FC0005C00B3EB910F24BFA3EB910340EA9C00BC
:100FD000B3EBD10F24BFA3EBD10340EADC001B012C
:100FE00018BF5FEA1C1CE0D1FD2A3FF650AF8B42D0
:100FF00040EBC25008BF20F0010070470CF0004CDD
:101000004CEA50207F32C2BFD2F1FF0340EAC25007
:10101000704740F400004FF00003013A37E792F0C8
:10102000000F00F0004C02BF400010F4000F013A26
:10103000F9D040EA0C0093F0000F01F0004C02BF21
:10104000490011F4000F013BF9D041EA0C0195E78A
:101050000CEAD15392EA0C0F08D142027FF47DAF23
:1010600093EA0C0F7FF470AF084676E793EA0C0F13
:1010700004D14B023FF44CAF08466EE730F0004C11
:1010800018BF31F0004CCAD130F000427FF45CAFA1
:1010900031F000437FF43CAF5FE700BF4FF0FF3C0F
:1010A00006E000BF4FF0010C02E000BF4FF0010C62
:1010B0004DF804CD4FEA40024FEA41037FEA226C2B
:1010C00018BF7FEA236C11D001B052EA530C18BF4D
:1010D00090EA010F58BFB2EB030088BFC81738BFB2
:1010E0006FEAE17018BF40F0010070477FEA226CA0
:1010F00002D15FEA402C05D17FEA236CE4D15FEA9C
:10110000412CE1D05DF8040B704700BF84460846CF
:101110006146FFE70FB5FFF7C9FF002848BF10F190
:10112000000F0FBD4DF808EDFFF7F4FF0CBF0120D5
:1011300000205DF808FB00BF4DF808EDFFF7EAFF5F
:1011400034BF012000205DF808FB00BF4DF808ED1A
:10115000FFF7E0FF94BF012000205DF808FB00BF0F
:101160004DF808EDFFF7D2FF94BF012000205DF895
:1011700008FB00BF4DF808EDFFF7C8FF34BF0120A2
:1011800000205DF808FB00BF4FEA4002B2F1FE4FBD
:101190000FD34FF09E03B3EB12620DD94FEA002339
:1011A00043F0004310F0004F23FA02F018BF404212
:1011B00070474FF00000704712F1610F01D14202F9
:1011C00005D110F0004008BF6FF0004070474FF0AD
:1011D0000000704742000ED2B2F1FE4F0BD34FF029
:1011E0009E03B3EB126209D44FEA002343F000439D
:1011F00023FA02F070474FF00000704712F1610FC0
:1012000001D1420202D14FF0FF3070474FF0000091
:10121000704700BF53B94AB9002908BF00281CBF56
:101220004FF0FF314FF0FF3000F07AB9ADF1080C0C
:101230006DE904CE00F006F8DDF804E0DDE90223F4
:1012400004B070472DE9F0478C460E460446089DD1
:10125000002B50D18A4217466CD9B2FA82FEBEF1F9
:10126000000F0BD0CEF1200C01FA0EF620FA0CFC88
:1012700002FA0EF74CEA060C00FA0EF43A0CBCFB2C
:10128000F2F9BBB202FB19CC09FB03FA4FEA14488E
:1012900048EA0C46B2450AD9F61909F1FF3180F047
:1012A0002581B24540F22281A9F102093E44A6EB14
:1012B0000A06B6FBF2F002FB106600FB03F3A4B2D1
:1012C00044EA0644A34209D9E41900F1FF3280F050
:1012D0000B81A34240F2088102383C440021E41A09
:1012E00040EA0940002D62D0002324FA0EF42C605D
:1012F0006B60BDE8F0878B4207D9002D55D00021E7
:1013000085E841000846BDE8F087B3FA83F100297B
:1013100040F08F80B34202D3824200F2FC80841AF4
:1013200066EB03060120B446002D40D085E810107E
:10133000BDE8F08712B90127B7FBF2F7B7FA87FECD
:10134000BEF1000F35D10121F61B4FEA174C1FFAF1
:1013500087F8B6FBFCF20CFB126608FB02F0230CCC
:1013600043EA0646B04207D9F61902F1FF3302D22A
:10137000B04200F2D2801A46361AB6FBFCF00CFBE3
:10138000106608FB00F8A3B243EA0644A04507D95B
:10139000E41900F1FF3302D2A04500F2B9801846EB
:1013A000A4EB080440EA02409CE729462846BDE831
:1013B000F08707FA0EF7CEF1200326FA03F24FEA80
:1013C000174CB2FBFCF11FFA87F80CFB112206FA4E
:1013D0000EF620FA03F301FB08F933431E0C46EA2C
:1013E0000246B14500FA0EF409D9F61901F1FF32AF
:1013F00080F08C80B14540F2898002393E44A6EBF2
:101400000906B6FBFCF00CFB106200FB08F99EB26B
:1014100046EA0246B14507D9F61900F1FF3371D209
:10142000B1456FD902383E44A6EB090640EA0141B6
:101430008FE7C1F1200722FA07F88B4048EA03033F
:1014400026FA07F44FEA134EB4FBFEF91FFA83FCA9
:101450000EFB19448E4020FA07F809FB0CFA48EA03
:1014600006084FEA184646EA0444A24502FA01F289
:1014700000FA01F608D9E41809F1FF3044D2A24578
:1014800042D9A9F102091C44A4EB0A04B4FBFEF002
:101490000EFB104400FB0CFC1FFA88F848EA0444D9
:1014A000A44507D9E41800F1FF3E29D2A44527D965
:1014B00002381C4440EA0940A0FB0289A4EB0C0C52
:1014C000CC45C246CE4615D312D055B1B6EB0A0371
:1014D0006CEB0E0606FA07F7CB401F43CE402F6099
:1014E0006E600021BDE8F0871046F7E68946DEE62B
:1014F0004645EAD2B8EB020A69EB030E0138E4E78D
:101500007046D7E718468FE78146BDE7114676E774
:1015100002383C4444E7084606E7023A3E442BE7DB
:10152000704700BF70477047034B1B78022B01D0F8
:1015300002F0C0BB704700BF14CA002008B50021EC
:10154000442207480EF0F2F90649002002F07AFC26
:1015500020B9BDE80840072002F050BC08BD00BF1C
:1015600088BF0020B0BF00200149024803F066BEDA
:101570003CCA0020A4BF00202DE9F04FAC4E99B02A
:1015800009904022002130460EF0D0F90022A94BEC
:10159000934603CB1B889046A6F8093000231546D6
:1015A0001746C6F80100C6F805108DF83B200F93CA
:1015B0000892069207920D939DF83B20099B13F821
:1015C0000290B9F1000F25D115B1002F08BF0227F5
:1015D0001BF0200F04D0326A974B9A4200F3B38677
:1015E000B378012B40F0B181022F03D11BF0010F22
:1015F00000F0B2861BF4807F02BF8E4BDB68F36283
:101600003378042B40F0C0811BF0400F40F0B881CC
:101610001C20C9E0A9F14101192900F2828601329A
:101620008DF83B200DF13B010FAA099801F048FB12
:10163000002800F07986DDF83CA05046FEF734FF24
:101640000FF0E8FAFFF75CFAC4B22046FFF782FB1E
:1016500001465046FFF7C8FA7849FFF7CFFBFEF77F
:1016600023FF0FF057FAFFF74BFAB9F1470F80B29B
:101670001ED0B9F14D0F00F0B580A9F14603142B2F
:1016800023D8DFE813F0FD0022002200180120011A
:1016900028013001220033012200390122003D01DE
:1016A00041014501220022002200500156015C0147
:1016B000282C00F091801DD8132C08D8112C6DD245
:1016C000042C58D011D30A2C50D014206CE01C2CC0
:1016D0004CD006D8152CF8D8C4F11504F4700624A3
:1016E0005FE01E2C42D0262CEFD1002F40F01F8649
:1016F00002271EE03D2C6AD015D8352C3BD00CD8E3
:101700002B2C01D0312CE0D1002F40F01086312C51
:1017100058D1B771082403273AE03B2CD5D8363C82
:10172000F47109243DE05B2C17D85A2C3FD2502C81
:10173000CBD1262C747053D1A0F114039BB21E2B75
:10174000C3D83F4A22FA03F3DC07BED50A24B0FB14
:10175000F4F07638707001241AE05C2C06D05E2C10
:10176000B3D8C4F15E04B47005241AE018B9002F90
:1017700040F0DD85012704F0FD031C2B347001D0FF
:101780005C2C2BD108B10A289FD120440024307052
:1017900048FA04F3D8076BD5152005E0113C7471A5
:1017A00002240028F4D0172019B0BDE8F08F18B932
:1017B0005A3C34710324EBE70A2886D15A2C84D092
:1017C0000424E5E70A2880D10123B371A2E70028A9
:1017D0007FF47BAF0A24DBE70724E2E70024E0E79D
:1017E0000124DEE70028DED1062C18D006D8022C12
:1017F00028D8C4B1012C18D0347216E01E2CFBD0AE
:101800000AD8092C3FF661AF082C2DD0092C2DD019
:10181000802373726724BBE7642CB9D055E701239A
:10182000069C0893B4E7032333726524B0E700BF36
:10183000CCBF002088BF0020809698000000C842DE
:1018400001041040042C05D0052C0BD01023B372DA
:1018500066249DE7BA4B93F8D53099077FF535AFED
:101860002023F4E70023F2E74023D2E70023D0E768
:101870000123A34043EA08081FFA88F806949BE670
:101880000024C6F80CA04BFA04F3DA0700F15585E2
:1018900040F261332341DB0706D500215046FFF7B4
:1018A0004BFC002840F04C850121A14041EA0B0B84
:1018B0001FFA8BFBE2E7079BC6F810A043F0010379
:1018C00007930124DFE7079BC6F814A043F0020347
:1018D00007930224D7E7079BC6F818A043F0040338
:1018E00007930324CFE734770424CCE75046FFF76F
:1018F0004BFC05243062C6E7C6F824A00624C2E7E4
:10190000C6F828A00724BEE7C6F82CA00824BAE72A
:101910008C495046FFF72EFC002840F00B8586F8D6
:1019200030400924AFE7C6F834A045F001050A2489
:10193000A9E7C6F838A045F002050B24A3E7C6F8CE
:101940003CA045F004050C249DE77F4B5A78002A03
:101950007FF450AE1BF0010F0FD0F378012B7FF412
:1019600049AEF068FEF7A0FD73A3D3E90023FEF7AC
:10197000EFFDFFF7E5F8F0603CE61B69F36039E640
:101980002BF0400B1FFA8BFB7379002B39D0012B06
:101990000CBF012300230B930CBF002302230A93E7
:1019A0000CBF022301230993F378012B2ED0032FC0
:1019B00005D1B379012B02D1042D40F0C784624CCC
:1019C00010AB04F1280218F4007F07CADFF8848105
:1019D00083E8070034D198F800600A2E40D05C2ECE
:1019E00000F0BC80032F40F0E9801E2E00F025811E
:1019F000352E00F03D811C2E40F0D9805349062041
:101A00001DE102220B9201220A92CCE70024DFF8AA
:101A1000489145FA04F3D8070CD5D9F80000FEF731
:101A200043FD45A3D3E90023FEF792FDFFF788F8B5
:101A3000C9F800000134032C09F10409E9D1B6E723
:101A400098F80700062801D91D20ADE6A279824248
:101A5000C1D0194602F0F6F90028BCD10720A3E650
:101A60000DB91A20A0E61BF0500F3FF4D1ADD8F805
:101A70002400FEF719FD0FF0CDF8FFF741F8C0B2D2
:101A80000628E1D898F81C30142B06D0022B7FF4DE
:101A90001CAE1BF0800F7FF418AE2BF0500B1FFA1A
:101AA0008BFB002840D00138C3B206932749069823
:101AB00002F0C8F90028D1D04FF0000A98F81C3085
:101AC000D4F84080214C224E0C93A4F1100945FA21
:101AD0000AF2D10712D50C9B142B28D1B1693068BA
:101AE000FFF782F8616AFFF77FF8BAF1020F206012
:101AF00004D14146FFF778F8C9F818000AF1010A45
:101B0000BAF1030F04F1040406F10406DFD1114B0E
:101B10005E789946502E40F0BB80002D40F019842D
:101B2000002F00F0BE80BDE198F80730BDE7626A83
:101B30002260E3E7AFF3008066666666666639405A
:101B40001CC0002000007F4388BF0020DCBF0020B5
:101B5000A4BF0020CCBF002000C00020002D80D0FA
:101B6000236C0024DFF818A1444E06930DF14008C1
:101B7000AAF1340945FA04F2D2071BD558F824100B
:101B80003068FFF731F8DAF80010FFF72DF8022C73
:101B9000CAF8000004D10699FFF726F8C9F83C00FE
:101BA0000134032C06F104060AF1040AE2D10023F1
:101BB0000693ACE7B269CAF80020F1E7002D3FF4C4
:101BC00014AF98F804304FF000080693236C2C4CA7
:101BD000DFF8A8900C93A4F1340A45FA08F1CB077A
:101BE0000CD4D9F80010216008F10108B8F1030FF6
:101BF00009F1040904F10404EFD1F6E6352EF3D01F
:101C0000069B9BB910ABD9F8181053F82800FEF7C3
:101C1000EDFF2168FEF7EAFFB8F1020F2060E3D183
:101C20000C99FEF7E3FFCAF83C00DDE72068D9F81D
:101C30000010FEF7DBFF2060D6E70720114902F015
:101C400001F900283FF40AAF15B906952F465EE763
:101C500000230D490D4845FA03F2D40704D49A0035
:101C600054180244D26922610133032BF3D19EE759
:101C7000054B5B78012B9AD91E2095E5A4BF002067
:101C800000C00020DCBF0020CCBF002088BF0020A7
:101C9000022F7FF445AF002E40F0F380002D40F07E
:101CA0000181002427462BF4487121F0010100290D
:101CB00040F05E83142213A80DF038FEA34BDFF82A
:101CC000A48293F8D520A24E12F0020F99460ED0AE
:101CD00098F80130013B022B88BF44F04004002DEE
:101CE00000F05382022F40F0508244F08004D8F874
:101CF0002030B361169398F80230737013B1082343
:101D00008DF85430D8F80C30D8F82CA033615146F7
:101D1000F0681393FFF706FA04F0400508B1A20635
:101D20000CD5707A38B1230605D4002D00F041821D
:101D3000002102F085FAD8F82C30F3600DB9F36871
:101D4000149398F830303375089B4BB199F83C30B8
:101D500033B1804B1B7C002B00F00D8303F0E8FCBB
:101D600098F80A00737A834205D0149902F068FA51
:101D700098F80A3073729DF85430727A98F8090016
:101D800013438DF85430337A834207D0FFF7CCFBEE
:101D900098F80930002B40F00E8233729DF85430D1
:101DA000327A13438DF8543098F80030042B03D165
:101DB000D8F8240000F0C4FE98F80530032F3371E2
:101DC00098F80330B37010D198F80630737113B9D6
:101DD0000D9BC8F83C30D8F83C50306C2946FFF7D2
:101DE000A1F910B9356403F019FA98F80730B279FF
:101DF0009A4207D0B371584B10AA07CA83E807006C
:101E000003F00CFA98F80430F37098F80030262BA1
:101E100000F0068200F2D2811C2B00F0EB811E2B19
:101E200000F0E8810A2B00F0D38198F80130502BA4
:101E300033700ED0022F0CD1012B484D40F0FF81A2
:101E400013A9284600F094FC95E80700444B83E86A
:101E5000070098F80800F07100283FF4A5AC01F0E5
:101E600029FFF379032B3B4B40F037821B78022B81
:101E700004D0082003F09AF901F0F8FD0020F07179
:101E800092E40021D868FFF74DF9002840F0648201
:101E90008C2E10D008D8022E56D0032E1DD0012E25
:101EA0003FF4FCAE0024F6E08E2E04D001D38F2E3A
:101EB000F8D1102400E000247236F6B2012E98BF4B
:101EC00044F00804002D3FF4CCAD0C2223492448F3
:101ED0000DF012FD002835D0DDE00446002D3FF462
:101EE000C0AD0122099B0A9902FA03F38A40134309
:101EF0001D4200F034820C93DFF85480099B09EBFB
:101F0000830208EB8301C969506BFEF76DFE0A9BE3
:101F1000824609EB830208EB8301506BC969FEF727
:101F200063FE1BF0800206460C9B00F0B7802BF08E
:101F3000800B0C22094908F11C001FFA8BFB0DF0E5
:101F4000DBFC88B921202FE40424C7E71CC0002053
:101F500088BF002014CA0020B0BF002000C00020AD
:101F6000A4BF0020CCBF002099F80330012B0CD176
:101F7000D9F82800FEF798FAB5A3D3E90023FEF7B5
:101F8000E7FAFEF7DDFDC9F82800B74B986AFEF7BF
:101F90008BFA804689460022B44BFEF7D9FA4246B6
:101FA0004B46FEF7D5FA8046894650465146FEF725
:101FB00025FFFEF779FA02460B4640464946FEF7F2
:101FC00013F98046894630463146FEF717FFFEF783
:101FD0006BFA02460B4640464946FEF705F9FEF706
:101FE000AFFD00218046FFF7A7F8002840F0BA8136
:101FF0004046FEF759FA0EF041FE814688465046AB
:10200000314600F005FFFEF74FFA08F1004802469E
:102010000B4648464146FEF7C5FBFEF791FD924B45
:10202000DFF844925B788046032BD9F8283008BF4C
:1020300000F10048002118460793FFF77DF8079B41
:1020400028B103F1004308F10048C9F82830099B82
:102050003146023309EB830340460793FEF7CEFE79
:1020600001465046FEF7C0FD4FF07C51FEF7C6FE1C
:10207000079B514698600A9B4046023309EB83094F
:10208000FEF7BCFE3146FEF7B1FD4FF07C51FEF786
:10209000B5FEC9F808000BF0DE0108E607990B420F
:1020A00000F0638199F803302BF00E0B012B1FFA1F
:1020B0008BFB4DD00A9BDFF8B08103F1020908EBDE
:1020C0008909D9F808103046FEF78EFD099B079064
:1020D0009E1C08EB8606B1685046FEF785FD079BFF
:1020E000194600F095FED9F808108246B06800F055
:1020F0008FFEC8F82800014606465046FEF774FDDC
:1021000020F0004A5046FEF7CFF953A3D3E900234D
:1021100080468946FEF7ACFC0028BCD04FF07C51CD
:102120005046FFF727F800287FF40CAF3046FEF743
:10213000BBF94BA3D3E90023FEF70AFA02460B468C
:1021400040464946FEF794FC00287FF4FBAEA2E728
:102150009046DFF82091079B43FA08F3D9070CD586
:10216000D9F80000FEF7A0F939A3D3E90023FEF760
:10217000EFF9FEF7E5FCC9F8000008F10108B8F135
:10218000030F09F10409E6D194E7737A102B7FF469
:10219000AEAD3378013B022B04F0400305D8002B91
:1021A0003FF4A5AD44F02004A1E5002B7FF49FADE2
:1021B000F8E75146BDE5327A1343EEE55C2B34D0A7
:1021C000662B36D0282B7FF430AE2949072029E032
:1021D000284D0698294601F043FEB379069A9342AA
:1021E0007FF423AE95E80700234B83E8070003F054
:1021F00015F81AE69DF8543043F001038DF8543079
:102200001FB113A91D4800F0B3FA1A4D13A92846AF
:1022100000F0AEFA95E80700154B83E8070004E6E6
:102220000620134901F01CFEFFE5144A144B07CAAF
:10223000DBE70023124A736353609360D7E70BBB5D
:102240009DF8543043F001038DF85430F8E500BF99
:1022500066666666666639407B14AE47E17A743F0F
:10226000FCA9F1D24D62503FCCBF002000001040CD
:10227000A4BF0020DCBF0020B0BF002000C00020B1
:10228000BCBF0020023B012B13D80B9BC4F380047E
:1022900003930A9B04940293099B384A0193D8F84C
:1022A000283013A900932846A5F1240300F088FAEA
:1022B000CAE59DF85430224643F0040313A928468A
:1022C0008DF8543000F06CFC00283FF4BDAD0128BF
:1022D0007FF4BFADFFF748F9BBE5012232706422FD
:1022E0000024DA711A725A721B783471022BF4705E
:1022F0007470B471747234720FD02149204601F0A9
:10230000A1FD00283FF4AAAB02F088FF204600217F
:1023100001F095FF2046FFF706F9082001F079FD4E
:10232000ACE50120FFF740BA0220FFF73DBA1820C4
:10233000FFF73ABA2620FFF737BA1920FFF734BA69
:102340000420FFF731BA1B20FFF72EBA2520FFF734
:102350002BBA1F20FFF728BA1620FFF725BA202036
:10236000FFF722BA2220FFF71FBA2320FFF71CBA7B
:102370002420FFF719BA1220FFF716BAA4BF0020D5
:10238000B0BF0020F8B501270E4E00240E4D06EB1D
:10239000C403998856F8340004F03AFE2B680128EB
:1023A0000BBFA04007FA04F21843934304F1010461
:1023B0000CBF28602B60202CE9D1012005F052FFD2
:1023C000E3E700BFA822010814C000202DE9F04770
:1023D0004FF0140A92B05246002101A80DF0A6FA5F
:1023E0004FF001094FF002084CF2040301A94A48DA
:1023F000CDF80C90CDF81080019304F023FD4FF43C
:102400001C53464F01A93846019304F01BFD4FF4BD
:10241000784301A94248019304F014FD4FF440436E
:10242000404E01A93046019304F00CFDFF233E4DC0
:1024300001A92846019304F005FD4FF6C0733B4CFB
:1024400001A92046019304F0FDFC5246002106A894
:102450000DF06CFACDF81C904FF40069CDF8248093
:10246000DFF8D48006A94046CDF8189004F0EAFCC5
:1024700040464FF008080022494604F0CFFD06A967
:102480003846CDF8188004F0DDFC38464FF43C5750
:102490000022414604F0C2FD06A93046069704F02A
:1024A000D1FC30464FF416460022394604F0B6FD02
:1024B00006A92846069604F0C5FC28462C250022CD
:1024C000314604F0ABFD06A92046069504F0BAFC9F
:1024D00029460A250022204604F5806404F09EFD6A
:1024E00006A92046069504F0ADFC2946104D20466D
:1024F00000220BAC04F092FD0FCD0FC495E807004D
:1025000084E8070000210BA805F084FE094B186041
:1025100012B0BDE8F08700BF00040240000C02408A
:10252000001002400014024000180240001C02404B
:102530003822010810C00020000802407047704790
:102540002DE9F04F744D8DB06C788346002C40F02F
:10255000AA800FF2BC19D9E900891422214607A8E4
:102560000DF0E4F906234FF0000A8DF82430E0B2B4
:1025700001F05EFE03AB18554BFA04F3DB0718D5E8
:10258000664B03EB8403586AFDF78EFF42464B46C9
:10259000FDF7DEFF06460F465046FDF785FF324643
:1025A0003B46FEF765FA20B930463946FEF7C8FAD1
:1025B00082460134032CDAD1584C4FF00108D4F88C
:1025C000DC3001930423009304AE5549304602F0F9
:1025D00035FE002081460246034694F8D6C00AF133
:1025E00000414BFA02F7FF0717D54D4F013047F86E
:1025F00022304CFA02F7FF07C0B205D5B8F1000F40
:1026000005D046F8221004E0B8F1000FF9D046F8E2
:1026100022A003AFBF5C49EA07090132032AE0D1D7
:10262000FDF720FF0EF02AFB06460F460198FDF746
:102630003BFF32463B46FDF78BFF85F80690FEF7E1
:102640007FFA07A9079004A800F04AFE04232B7123
:1026500002F07EF801F0B8FEB8F1000F01D085F865
:10266000069002F075F82F4B1A7812F0340F20D034
:102670001E78F6B2F30602D5062002F0A7FDB706D3
:1026800002D5072002F0A2FDB8F1000F04D07607B2
:1026900002D5092002F09AFD234B1B7833B100F0DC
:1026A000E3FA01F0E3F90DB0BDE8F08F042002F089
:1026B00085FD02F007F8B4F8E00000F087FB98F021
:1026C00001081DD01949D4F8E400FEF797FB8246B3
:1026D000D4F8D8300193009B5A1E12F0FF030093E8
:1026E0007FF472AF19460E4A4BFA03F0C00748BF99
:1026F00042F823100133032BF6D100232B71D2E7CC
:10270000D4F8E4A0D4F8DC30E4E700BFAFF30080F5
:102710009A9999999999F1BF14CA00201CC0002078
:102720003CCA002029CA002048CA00200000A0405E
:1027300010B502F0BFFDC0B101220C4C2078E27050
:10274000082808D000F090FA022002F03FFDBDE812
:10275000104001F08BB902F029FD01F087F9637890
:102760001BB92378002BF8D1ECE710BD14CA002068
:1027700070B5114B054693F8D5300E4613F0200F77
:102780000E4C04D02378202B01D0FFF7D1FF237803
:10279000022B0FD001F06AF963785BB900F0F2FC0C
:1027A00010B100F0B3FFF5E731462846BDE87040B0
:1027B00000F096BD70BD00BF1CC0002014CA0020F0
:1027C0002DE9F04F1C4692468FB09DF86C309DF875
:1027D000645002939DF8703054F825B00493AB0018
:1027E0001A440190E318009158465AF825100892AF
:1027F0000993FEF7FBF99DF868600390B3000AEBBC
:102800000302E31854F826405AF8261020460A928C
:102810000B93FEF7EBF9019B0399069053F8250003
:10282000FEF7E2F9019B0546069953F82600FEF7EC
:10283000DBF90BF1004B814629465846FEF7DEFADC
:1028400004F10044064649462046FEF7D7FA014601
:102850003046FEF7CBF9FDF727FE06460F465846F1
:102860004946FEF7CBFA294681462046FEF7C6FACE
:1028700001464846FEF7B8F9FDF716FE3B463246DC
:10288000DDF860800EF0F8F9FEF75AF9049B054672
:10289000002B4CD0FDF708FE9DA3D3E9002306468C
:1028A0000F46FEF7DBF848B19BA3D3E9002330467F
:1028B0003946FDF799FCFEF743F905469C4B414626
:1028C000D3F8C0604046FEF791F93146FEF78CF927
:1028D0003146FEF793FAFDF7E7FD0EF0CFF9064615
:1028E00028460F46FDF7E0FD0022924BFDF730FE33
:1028F000CDE904014046FDF7D7FD02460B46DDE970
:102900000401FDF725FE3B4621F0004732463946DB
:10291000FDF748FF0EF038F8FEF7F2F886B2CEB9B0
:10292000009901980FB0BDE8F04FFFF721BFFDF708
:10293000BBFD7BA3D3E9002306460F46FEF784F8D0
:102940000028BBD074A3D3E9002330463946FDF7F5
:102950004DFCB0E7009B1F7A3B070CD53046FEF7D5
:10296000F9F9009B01461868FEF748FA009B27F02A
:10297000080718601F723046FEF7ECF980460146E2
:102980002846FEF7EFFA029B029A0AEB83030493B0
:10299000029B07465AF82310019B53F82200FEF7CA
:1029A00023F94146FEF7DEFA39460C903846FEF729
:1029B00025FA01464FF08040FEF716F905463846E5
:1029C000FDF772FD58A3D3E90023FDF7C1FD804652
:1029D00028468946FDF768FD0022574BFDF706FCA7
:1029E00002460B4640464946FDF7B2FDFEF7A8F801
:1029F0004FF07C5102902846FEF700FA01254FF077
:102A000000080790ABB29E428AD9B8F10B0F3FD8AD
:102A100002995846FEF7F2F9079981462046FEF7DB
:102A2000EDF901464846FEF7E1F807998146584618
:102A3000FEF7E4F9029983462046FEF7DFF90146E6
:102A40005846FEF7D1F84C46834608F101085FFA74
:102A500088F803995846FEF7C9F8089B069918604C
:102A60002046FEF7C3F80A9B0C991860049B0135B9
:102A70001868FEF7BBF8049B009918605046FFF7F2
:102A800077FE2E4B5B78002BBCD00FB0BDE8F08FEB
:102A90002846FEF75FF93946FEF7B0F9FDF704FD69
:102AA000804689460DF038FFFEF74AF8494604464D
:102AB00040460EF075F8FEF743F8099B0B9A1B6829
:102AC000814603F1004319462046D2F800800D9359
:102AD000FEF794F9414683464846FEF78FF90146D2
:102AE0005846FEF783F80D9B834619464846FEF785
:102AF00085F9414681462046FEF780F90146484661
:102B0000FEF772F84FF000080446A2E7AFF300802A
:102B10008DEDB5A0F7C6A0BE182D4454FB21194079
:102B20008DEDB5A0F7C6A03E4BDA7D5C5555C53F8F
:102B30001CC000200000E03F0000104014CA00202C
:102B400010B5074B04461B78022B07D001F0B2F8F2
:102B50002046BDE81040002100F03AB910BD00BF8A
:102B600014CA002010B50446FFF7E9FC7CB12046EA
:102B7000FFF7E6FC00F07AFF084B5B7863B9FEF7DD
:102B8000F3FC00F041FDBDE81040FFF7D7BC042086
:102B9000FFF7D6FC0320EBE710BD00BF14CA0020EE
:102BA0002DE9F8432C4C804623788946022B1746A2
:102BB00025464ED001F07EF8667816B10220BDE8B9
:102BC000F883C7F3C000667100F04EFD00F074FD9D
:102BD00040B1042002F0FAFA00F048FF304600F05D
:102BE00043FDEBE740464946FFF7C2FD01231B4C7E
:102BF0000220237002F0DAFA00F038FF6B78002B25
:102C0000DCD12B78002BF7D12378012B1ED1FB06CA
:102C100018D5134B134A07CA83E807000020207019
:102C200000F022FD00F022FF01F04CFD00F04AFA16
:102C300000F0EAFC01F0FAF86879003018BF0120D2
:102C4000BDE8F883052002F0C1FAE7E701236B71C4
:102C5000E4E70020BDE8F88314CA00202CCA002055
:102C600030CA00203CCA002008B5114B1B78DB0697
:102C70001DD4102002F09AFA01F0E0FAFEF752FC9F
:102C80000C4A137813F02C0F03D1127912F0060FAF
:102C90000DD0042B09D1084B1B7813B9062002F084
:102CA00095FABDE8084001F0BFBB0320F7E708BD77
:102CB00029CA002014CA002048CA002000000000D1
:102CC0002DE9F74F0B789346C218C35C06462D2BAF
:102CD0008A4618D101275378951C00210A460C46D4
:102CE0000846303BDBB2092B19D80132D2B2082A90
:102CF00010D809B1013C64B200EB800003EB400046
:102D000015F8013BEDE72B2B12BF551C951C537892
:102D10000027E2E70029F3D1013464B2F0E7FE2B8B
:102D200002D109B90121EBE71AB3FEF70FF8002130
:102D30000190FEF7F7F9019B88B90FF27C09D9E9F8
:102D40000089621C19DB25D11846FDF7ADFB1CA3D9
:102D5000D3E90023FDF7FCFBFDF7F2FE03460FB1BC
:102D600003F100430122AD1B013DCBF800308AF88E
:102D70000050104603B0BDE8F08F1846FDF794FBF5
:102D80004B464246FDF7E4FBFDF7DAFE023403460C
:102D900064B2D6E7002CE2D0DFF82C80184641461A
:102DA000FEF72CF8013CE2B2034654B2002AF5D1FA
:102DB000D5E700BFAFF300807B14AE47E17A843FD4
:102DC0009A9999999999B93F00002041704700005C
:102DD00070B50E460C49FEF711F8FDF765FB0DF0D6
:102DE00017FDFDF78DFE094D84B264B16B7853B9C0
:102DF00026B900F03BFE013CA4B2F6E700F090FCDF
:102E0000AB789B07F7D570BD0000A04114CA002025
:102E100038B50D460146FDF7F1FF29460446284620
:102E2000FDF7ECFF01462046FDF7E0FEFDF73CFB19
:102E30000DF024FFFDF784FE38BD2DE9F843002591
:102E40000446A946061F00F1080856F8047F4946C3
:102E50003846FEF767F940B939463846FDF7CEFFE8
:102E600001462846FDF7C2FE0546B045EDD128468D
:102E7000FDF71AFB0DF002FFFDF762FE0646014664
:102E80004FF07E50FEF76EF8054601462068FDF7CC
:102E9000B5FF294620606068FDF7B0FF29466060F5
:102EA000A068FDF7ABFFA0603046BDE8F8830000E6
:102EB0002DE9F8430746884600244FF000090D4DE0
:102EC00058F8246049463046FEF72CF960B931467F
:102ED00057F82400FEF746F820F000462946304611
:102EE000FEF748F900B935460134032CE8D12846ED
:102EF000BDE8F8839976967E644B2DE9F04F1F88E4
:102F0000634E002F08BF4FF40077B6F80090013FE2
:102F1000BFB285B0B945019379D03C245D4D04FB27
:102F2000075BDBF82010DBF81CA00846FDF75EFE0F
:102F3000DBF82410FDF762FF834601465046FEF79A
:102F4000FBF800B9DA46002F14BF3B464FF400737C
:102F500004FB0754013BC4F818A01FFA83FAD145BB
:102F600036D04FF03C093288524537D0BAF1000FC5
:102F7000D04609FB0A5B08BF4FF4007A0AF1FF3321
:102F80001FFA83FA444B1A88524501D101F048FBDD
:102F900009FB0858D8F81C70D8F818003946FEF715
:102FA000C1F898B9D8F820100846FDF71FFED8F8E8
:102FB0002410FDF723FFA169FDF718FE0446014622
:102FC0003846FEF7D7F828B3C8F818405C46CAE779
:102FD000314B1B884B4501D101F022FBB6F800A014
:102FE0003C270AF10104A4B2B4F5007F08BF002415
:102FF0004FF00008019B07FB0A5B1B880393039BB0
:103000009C420AD1B8F1000F01D0A6F800A005B08B
:10301000BDE8F08FC8F81870D8E707FB0459DBF853
:1030200018300193D9F81830019819460293FEF729
:1030300083F8B0B1DBF820100846FDF7D7FDDBF8C8
:103040002410FDF7DBFE0199FDF7D0FD8346014614
:103050000298FEF78FF820B1A2464FF00108C9F898
:1030600018B007FB0452D1699069FEF75BF800289D
:1030700018BFA24604F10104A4B218BF4FF0010822
:10308000B4F5007F08BF0024CB46B8E7A478002041
:10309000A6780020A4000020A878002000230121A9
:1030A000044A1380044A1380044A1180044A13809E
:1030B000704700BFA8780020A4780020AA780020DC
:1030C000A678002008B51C22002103480CF02EFC35
:1030D000BDE80840FFF7E2BFAC7800200A4B0B4A7E
:1030E0001988128810B58A421A460BD04B1C9BB225
:1030F000B3F5007F08BF00230548138004888C4285
:1031000008BF038010BD00BFA8780020A47800206D
:10311000A67800203C20034B1A88034B00FB0230AA
:10312000704700BFA4780020A4000020054B188839
:10313000054B1B8883421DBF3C22044B02FB003021
:1031400000207047A8780020A4780020A400002068
:10315000094B0A4A1B88128801339BB2B3F5007FE2
:1031600008BF00239A421FBF3C21054A01FB0323ED
:10317000986908BF00207047A8780020A478002034
:10318000A4000020034B1888034B1B88C31A584225
:1031900058417047A8780020AA780020000000005D
:1031A000F8B5837C0546DA07046B28D5284B187AD6
:1031B000FDF768F924A3D3E90023FDF7C9F9064612
:1031C00020460F46FDF770F902460B463046394659
:1031D000FDF7BEF9FDF7B4FC04461E4B2046D3F8BC
:1031E000B0502946FDF7C6FF38B94FF07E51204652
:1031F000FDF7C0FF28BB4FF07E552846F8BD5B07A2
:1032000016D4134BD879FDF73DF90FA3D3E900236A
:10321000FDF79EF9064620460F46FDF745F90246A2
:103220000B4630463946FDF793F9FDF789FC044615
:10323000ED6A20462946FDF79DFF0028CDD02C469B
:10324000CBE72546D9E700BF7B14AE47E17A843F40
:1032500014CA00201CC000202DE9F0474FF03C08A4
:10326000194B1A4D1C881A4B1A4FB3F800904C4555
:1032700003D1194B9D61BDE8F08708FB047A5046E5
:10328000FFF78EFF064601462846FDF755FFC0B101
:1032900029462846FDF7B2FD08FB0475CAF81C0054
:1032A000D5F828A0E8695146FDF764FF08B1C5F8D4
:1032B0001CA00134A4B2B4F5007F08BF0024354639
:1032C000D5E731463046E5E7A87800209976967E26
:1032D000A4780020A4000020AC78002000000000AA
:1032E0003C222DE9F04F8A464FF03C0B4FF000088E
:1032F000B74EB84D348891B002FB045701900021BD
:1033000038460CF013FB9AF80820DAF8041012F093
:10331000020F7963DAF80C10BA7414BFAE4AAF4AE0
:10332000796100960DF11C0907CA0BFB045B89E863
:103330000700AB4A019B52F8281053F8280002926C
:10334000FDF75CFDFDF7B0F80DF0A2FB59F8281071
:1033500004AB43F82800401A80EAE076A6EBE0765A
:1033600047F82860DBF80C1033468E4238BF0B4616
:10337000CBF80C300393FDF7EDFC029A0AAE52F83D
:103380002810FDF7EFFD002146F82800FDF7D4FED8
:10339000039B38B1934ABBF8101032F818200A4347
:1033A000ABF8102008F10108B8F1030FC1D1002BD0
:1033B00000F0FF804FF03C093046FFF73EFD09FB6F
:1033C00004593146C9F824008748FFF771FD31469A
:1033D000C9F820008548FFF76BFD99F81280C9F8FD
:1033E0002C0018F0010F53D0C9F83000009B4FF0AB
:1033F000000A1A887E4B1B889A4202D018F00208F5
:1034000052D03C2303FB0453C3F818A0C3F828A0F0
:103410004FF03C0808FB045898F812309B0735D44D
:103420003846FFF7BDFE6D4F8146D7F818A05146CC
:10343000FDF7A0FE002800F0B98051465046FDF788
:10344000DDFC3C2303FB0454A56AC8F81C00294694
:10345000E069FDF78FFE00B1E561664B96E8070075
:10346000C7F8189083E8070004AB93E8070087E8E3
:103470000700614A009913880B8001339BB2B3F5B2
:10348000007F08BF00231380FFF736FD012091E085
:10349000DAF8001018F0080FC9F83010A6D0D9F8E3
:1034A0002400FDF7ABFC9FE7D1460DF1340B4B4BED
:1034B0004344DA6856F808301046194603930192DF
:1034C000FDF79CFC01464846FDF78EFB019A039BE5
:1034D000814611461846FDF787FB4BF8080008F1B6
:1034E0000408B8F10C0FE2D14846FCF7DDFF34A325
:1034F000D3E9002380468946FDF7BAFA18B13C2388
:1035000003FB045382E730A3D3E900234046494636
:10351000FDF790FA28B13C2303FB0453374A9A6223
:1035200076E75846FFF789FC59462F48FFF7C0FC5D
:1035300042464B46834632490020FCF755FE0022A6
:10354000304BFDF705F80DF099FBFDF7F9FA8246CF
:10355000029B5846D3F8BC10FDF750FC5146FDF7CE
:103560004DFCFCF7A1FF804650468946FCF79CFFC6
:1035700002460B4600202249FCF736FE02460B4667
:1035800040464946FDF70EF9002200238046894651
:10359000FDF750FA40B940464946FDF7D1FA3C23C1
:1035A00003FB0453986233E70020F8E74946484696
:1035B00045E7184611B0BDE8F08F00BFAFF30080BB
:1035C000E90B21E7FDFFEF3FE90B21E7FDFFEFBF2F
:1035D000A4780020A40000203CCA0020AC78002081
:1035E0001CC00020B023010834C0002028C00020E7
:1035F000A8780020B8780020AA7800209976967ED6
:103600000000F03F0000E03F044A054B11681960DC
:103610005168926859609A60704700BF3CCA0020A8
:10362000AC780020064B1A88064B1B889A422CBFA8
:1036300003F2FF1003F1FF30801A80B2704700BF21
:10364000A4780020A878002008B500F0E9FF044B1A
:103650001A88044B1A80BDE80840FFF74DBC00BF34
:10366000A8780020A67800200022074B1A70074A8D
:1036700092F9D520002AA4BF01221A7018B11A7835
:1036800082F001021A70704718C000201CC0002090
:103690004FF4007310B586B001930024012301A9F3
:1036A00004480393029403F0CDFB2046FFF7DCFFB0
:1036B00006B010BD000C024008B54FF4007104487C
:1036C00003F0A6FC034B1B781B1A5842584108BD57
:1036D000000C024018C0002008B5FFF7EDFF60B1F4
:1036E0000022064B1A70064B064A07CA83E80700F9
:1036F000054A137843F04003137008BD2CCA00201C
:1037000030CA00203CCA002029CA002008B5FFF7B3
:103710000DFD20B1BDE80840022001F047BD08BD05
:10372000F8B5354B354C1B78354E03F0FF054BB1E2
:1037300001272846013D277000F067FBBD420CD9E8
:1037400001F04AFD337803F0FF05002B00F0B48050
:10375000E9060CD501236370F8BD384600F059FB2B
:10376000102001F02BFD3378D806FCD5E8E715F0E2
:10377000E80F5BD023786EB213F0030F48D113F03B
:10378000280F10D0A37813F0C00F0CD100F048FF21
:10379000022323712378202B05D1002E07DBA37889
:1037A00063F07F03A37023780BB90122A2706A062D
:1037B00005D59F065EBFA27842F04002A27028079E
:1037C00004D513F0E00F04BF10232370A9061FD502
:1037D000062000F01EFBA3781A0615D42278402A92
:1037E00010D11F0704D523F01C0343F00203A3707C
:1037F0004023237008E000BF48CA002014CA0020FC
:1038000029CA0020802AF3D1A37843F02003A370B3
:10381000002E08DA2378012B02BFA37843F00503BA
:10382000A37080232370E82001F0C8FCA80723D5EB
:1038300015F0680F1DD12378402B07D1A37813F022
:10384000200203D1D90640F1CD8022702378002BCD
:1038500000F0CE80DF060CD5A278D60709D5102B54
:1038600040F0C680A37A002B00F0C28043F008032A
:10387000A372022001F0A2FC68071DD5237813F083
:10388000D00F00F0CA80E378002B40F0C68094F996
:103890000230002BC0F2C180FFF7D6FE23799907D2
:1038A00048BFA27823F0060344BF42F00102A27091
:1038B0002371042001F082FC694B1B7803F0FF05A3
:1038C000002B33D001F09EFCE07915F0010F0CBF06
:1038D00003466423AA0744BF0A33DBB26F0744BF21
:1038E0000A3BDBB22E0744BF0133DBB2E90644BF1B
:1038F00003F1FF33DBB20A2B38BF0A23217A15F01C
:10390000200F14BF64220A4615F0400F18BF322260
:1039100015F0800F18BF1922984201D18A4205D0B4
:10392000E3712272FFF798FCFFF78EFE4D4B1B7878
:1039300003F0FF06002B4DD001F06AFC627A16F00E
:10394000010F0CBF13466423B70744BF0533DBB236
:10395000750744BF053BDBB2300744BF0133DBB220
:10396000F10644BF03F1FF33DBB2C82B28BFC823E5
:103970000A2B38BF0A239A421FBF2279637242F092
:1039800008022271B70607D52378102B04D1A37A39
:10399000002B5FD10223A37216F0C00F1AD0237838
:1039A00013B113F0180F15D02F4F70063D7A05D5BF
:1039B00069064CBF05F0BF0545F04005320605D548
:1039C0002B064CBF05F07F0545F080052846FDF726
:1039D000AAFD3D72237813F0FC0F40D0BDE8F840FB
:1039E00000F0B6BE5A0744BF43F00803A3702DE7AA
:1039F00000232371FFF79AFB58B1A37813F040031B
:103A000007D1A3700823237000F0A2FE00F0DCFCB5
:103A10002FE70023A37023702BE794F90230002BCB
:103A200009DA00232371FFF74DFB00F04BFEFDF791
:103A30009BFDFFF7E9FDA37813F020021FBF03F001
:103A40007F0343F00103A37040230ABFA2702370D9
:103A500022702EE7DD079FD543F004039BE7F8BDF6
:103A6000D8C9002028CA002088BF00202DE9F84FBF
:103A7000604CFFF755FEA378B3B1FFF757FBA8B929
:103A80005D4B5E7A1A7AD3F80C8016435B4F97F839
:103A9000D530980702D5202001F0ACFB4FF0000A8A
:103AA000DFF85491A5782DB9BDE8F88F867CD0F861
:103AB0003480EBE794F801B0BBF1000FF4D1E907D3
:103AC00014D5227812F0C0005BD015F0040510D197
:103AD00051462846A57200F0B2FB2846FDF723FDAB
:103AE000A37823F0020343F00403A370FFF718FE4A
:103AF000D8E7802A12D10B2000F08BF9002158461C
:103B000000F09DFB5846FDF70EFD00F08DFC63783C
:103B10000BB1BDE8F88FFFF703FEF8E7402A06D1A6
:103B200001F042FB18B9A37823F02003A370A37817
:103B30001A07DBD599F809204AB19D0707D497F8F1
:103B4000D530980717D5237943F00803237199F8E6
:103B5000083033B1A378990703D406F04000FDF78D
:103B6000E2FCA3789A07C1D443F010030220A370AB
:103B700001F01CFBBAE7414606F0300000F05FFBA5
:103B8000E5E7A37A4BB39D0708D599F80930E3B16F
:103B9000514600F054FB0123A372A7E713F00C0F6A
:103BA000A4D099F8093053B10A2000F032F997F8FF
:103BB000D53099070BD5237943F008032371A37AF5
:103BC0001A0702D5022001F0F1FA0023E4E741468A
:103BD00006F0300000F033FBF1E723791B0785D5B1
:103BE000414606F0300000F02AFB237923F0080359
:103BF00023717BE714CA002088BF00201CC000206E
:103C0000F8B5294E337813F0810313D0022000F069
:103C100000F9012333700025244F01F03BFCFF28FD
:103C200015D1FFF773FDFFF721FF7378002B39D112
:103C30002C461CE0337001F0B7FA0028EBD01C4A88
:103C4000137843F020031370FFF710FFE3E70A280F
:103C500001D00D2819D1FFF709FF747814BB7C55EA
:103C60003B7823B1242B04D1384601F081F9254655
:103C7000D3E7337813F0210F03D0092000F0BEF80A
:103C8000F5E73846FDF778FCF8E77E2DD0D8A0F1AF
:103C90006103DBB2192B05F1010498BF2038E4B2AF
:103CA0007855E4E7F8BD00BF14CA0020C8780020AA
:103CB00029CA002010B5FFF729FD064CFFF7D6FEF4
:103CC000637833B9FFF732FA0028F7D12378082B4D
:103CD000F4D010BD14CA0020002370B5DEB012ACC1
:103CE0002070013863700C280CD8DFE800F0070D55
:103CF00054545454540B0B570B6169000121204656
:103D000001F0B0FB5EB070BD304D01AE2B788DF888
:103D100010302F4B93E8070086E80700314605A8CE
:103D200001F08CFA314608A801F096FAFFF77AFC08
:103D3000ADF82C00FFF7FAF900230C9318B1436992
:103D4000002BC8BF0C93234B2349D3F8B000FDF7D9
:103D500009F9FDF73FFA8DF8340001F0FBF8EB7933
:103D60000E908DF83C302B7A0DF149058DF83D30E1
:103D70001A4B1B6810931A4B1B88ADF8443004ABE8
:103D80001A4603CAA24228606960134605F1080575
:103D9000F6D13921B3E761700321B0E70D494FF443
:103DA0008E720DF149000BF0B6FD40F21D11A6E731
:103DB0000C4944220DF149000BF0ADFD45219EE771
:103DC000024B0521DB68C4F8013098E714CA0020D3
:103DD0003CCA00201CC0002000007A4414C000200F
:103DE0000CC0002088BF00201FB5034901A801F0C6
:103DF00025FA05B05DF804FB5CC00020014610B94F
:103E00000320FFF769BF0420FBE701460620FFF708
:103E100063BF01460720FFF75FBF00210120FFF7C6
:103E20005BBF00210A20FFF757BF00001FB5034901
:103E300001A801F003FA05B05DF804FB30CA0020C8
:103E4000704700000C230A46044903FB001303CB10
:103E50001060516018689060012070476CC00020AD
:103E600038B50D460446FFF725FF0C20044B696862
:103E700000FB0433286803C3A868186038BD00BF7E
:103E80006CC000201FB502212D4B052283F8B8100D
:103E90002C4983F8B420C3F8BC10196359639963A3
:103EA0002949C822C3F8C41028490024C3F8C810FF
:103EB000032183F8D610264983F8B720C3F8D81019
:103EC00024490722C3F8DC10FA21A3F8E0104FF0D0
:103ED0008241C3F8E410582183F8D5101E491F48C9
:103EE00019601F49C3F8B00059601E491E48996007
:103EF0001E4983F8B520D960196159611C4983F8BE
:103F0000B6409961C3F8C00083F83C4083F84C4048
:103F10001C645C649C64D961164901941962164959
:103F2000029459621549039499621549D962E0B225
:103F300001A90134FFF794FF082CF8D104B010BD9B
:103F40001CC000200AD7233C0080BB460080BB4534
:103F50000000FA4300007A45000048430050434700
:103F60000000C843000020446F12033B00409C4502
:103F700000CF994900D68349000048C400209EC460
:103F800000005CC3C30701D5FFF77CBF7047FFF794
:103F900079BF000070B50E46044600213046FDF79B
:103FA000CBF8002840F02881632C2DD9643CE4B282
:103FB000022CC3B21ED8022B934D0AD0032B13D070
:103FC000012B0ABF05EB840445F82460E66000205D
:103FD00070BD8E493046FCF711FF8C49FCF70EFF8F
:103FE000063445F82400F2E705EB840406F10046A8
:103FF0006662ECE7092C40F201810130042800F0F0
:10400000FD800A3CE4B2D3E7A4F128030F2B07D8C4
:104010007D4B30461C44FDF7DDF884F8C400D6E73C
:10402000A4F138030F2B07D8774B30461C44FDF71B
:10403000D1F884F8D400CAE73046FCF735FA0CF022
:10404000E9FDFCF75DFDC0B2232C00F2D780DFE86C
:1040500004F0121A1E24283640D5D5D54F53575B8D
:10406000696D7175D5D57985939DA1A5A9ADD5D576
:10407000B1B7BBD5C5CC002800F0C280624B83F835
:10408000B400204670BD604B83F8B7009FE75E4BDD
:1040900083F8B50000F0DAFA99E75B4B83F8B600D5
:1040A000F8E7594B93F8D52020B142F0040283F889
:1040B000D5208CE722F0040283F8D52070BD524B46
:1040C00093F8D52010B142F04002F0E722F0400210
:1040D000F2E74D4B93F8D52038B162F07F02002013
:1040E00083F8D520FFF7C0FA71E702F07F02F6E708
:1040F000454B83F8B8006AE7434BC3F8BC6066E7FA
:10410000414BC3F8C06062E73F4B93F8D52030B114
:1041100042F0010283F8D52001F080F857E722F041
:104120000102F7E7384BC3F8B06050E7364BC3F8ED
:10413000CC604CE7344BC3F8D06048E7324B83F88F
:104140003C0044E7304B93F8D52020B1D10659D537
:1041500042F02002ABE722F02002ADE72A4B93F8B1
:10416000D52030B142F0080283F8D520FEF7E6F9F9
:104170002DE722F00802F7E7234B93F8D52010B182
:1041800042F0100293E722F0300295E71E4B83F8CD
:10419000D6001CE71C4BC3F8D86018E71A4BC3F8CD
:1041A000DC6014E7184BA3F8E00010E7164BC3F8E7
:1041B000E4600CE7144BC3F8C46000F03EF806E777
:1041C000114BC3F8C860F8E70F4B93F8D52010B136
:1041D00042F002026BE722F002026DE73046FCF784
:1041E000F9FF094BA3F8E800F1E63046FCF7F2FFCF
:1041F000054BA3F8EA00EAE6042070BD032070BD79
:10420000062070BD0A2070BD1CC000200000704256
:1042100010B5054C054A04F1400307CA83E80700BE
:10422000012384F84C3010BD1CC000203CCA002083
:10423000012303FA00F0C0B270477047704770471F
:10424000034B1B78022B01D0FFF734BD704700BF32
:1042500014CA002008B5074803F0BDF90649074A0B
:104260000B6912889BB223F4284302F428421343BB
:104270004B6108BD78C10020001002409C7D0020E9
:10428000014803F0D3B900BF38C10020014803F052
:10429000CDB900BF78C100202DE9F0414FF0804337
:1042A00000244FF48058434E8EB00EAF304633603A
:1042B000F4607460B4603461B46103F0BFFA47F82D
:1042C000248D3946304603F0DDFA20233A4D03A908
:1042D00030460393049403F069FB384B284685E885
:1042E0001800EC60AC602C61AC6103F0A7FA3946B1
:1042F0002846CDF8148003F0C5FA03A92846039494
:10430000049403F053FB2E4B01941A6C214642F0A7
:1043100001021A641A6C1C2002F001020192019A37
:1043200002941A6C4FF0010842F002021A641B6CEE
:10433000224603F002030293029B01F00BFF1C20B4
:1043400001F03CFF224621461D2001F003FF1D2005
:1043500001F034FF022730464AF6A02603F052F956
:104360002846184D03F04EF91422214609A80BF0F7
:10437000DDFA09A928460996CDF828800C9702F0A5
:1043800061FD314645F250562246284602F046FE6F
:1043900009A928460996CDF828800B940C9702F0BD
:1043A00051FD22463146284602F038FE0EB0BDE8E7
:1043B000F08100BF38C1002078C100200004004017
:1043C000003802400010024008B5114B114A1B880A
:1043D00011491382114B1C201B68B3FBF1F1104BE8
:1043E00093F8B4304B434FF080419BB2D381926A33
:1043F000013B5268013ACA620A4AD36201234B6107
:10440000536101F0DBFEBDE808401D2001F0D6BE7F
:104410009C7D0020047B002080841E00080000207A
:104420001CC000200004004008B51C2001F0D4FE90
:104430001D2001F0D1FE0022014B1A7008BD00BF03
:1044400048790020F8B5694D2B7803F0FF00002B68
:1044500040F0C380664A674C1369618A9BB201F4DD
:10446000A84123F4A8430B4353611369218A9BB2EB
:1044700023F428430B435361E389A2F50332013B44
:104480005062D3625C4803F094F80123A66A2B7053
:10449000002E3AD1594B5A491A780978914200F0C6
:1044A0009D800C224FF080471B785649DBB25A435F
:1044B0008818A0627E624668013EFE628A5A2284A3
:1044C000027A94F8220090420BD014264E4884F8C9
:1044D000222006FB02026262D2685208A260626079
:1044E0002260606A494A068A92F8B6207240628267
:1044F0000C2202FB03135A7A0368D34063614368BA
:10450000D340A3618368D340E361414B1B78012B07
:1045100001D1FFF7E1F80023606A22682382636912
:10452000C1681A448A4222600ED94FF400432382A4
:10453000038A521A13F4804F364B22601A6814BF54
:1045400002F1FF3201321A606268A3691A44914293
:1045500062600FD2238A521A43F400532382038AE3
:10456000626013F4805F2B4B5A6814BF02F1FF3274
:1045700001325A60A368E26913449942A3600FD2E2
:104580005B1AA360038A228A13F4806F214B42F4E2
:10459000006222829A6814BF02F1FF3201329A60EF
:1045A0001D4B1A78042A01BF9B79228A134023826B
:1045B000238C013B9BB2238443B91049A3620A7840
:1045C0000132D2B2202A0A7008BF0B70134A238A24
:1045D00012885340238200232B70F8BDFFF724FF7D
:1045E000BDE8F840042000F0E1BD00BF487900209C
:1045F00000100240047B002078C10020017B0020D5
:10460000007B002080790020307B00201CC000202F
:104610002CCA00203CCA002014CA00209C7D002027
:1046200038B5084C25685DB1074B5A78D96942F016
:1046300001025A700846FCF7E1FB0023A8612360E1
:1046400038BD00BF4C7900205079002000232DE9AF
:10465000F04317481D4690F8B57090F8B6E01E4636
:1046600018461C461349144ADFF850C0DFF8508042
:104670000B80138047FA03F919F0010F18BF3CF8BB
:1046800013604EFA03F91CBF3443012619F0010FE1
:1046900018BF38F8135003F101031CBF284301254C
:1046A000032BE7D106B10C8005B11080BDE8F08383
:1046B0001CC000209C7D00204A790020B623010800
:1046C000B023010810B5184CFFF7AEFE30220021D0
:1046D00016480BF02BF92C22002120460BF026F96E
:1046E00000230121124A1360124A1370124A1370F8
:1046F000124A1170124A1370FFF7A8FF1149124BAA
:10470000124A188812884B6902F4284223F428437D
:104710001A4360824A614B6900F4A84023F4A8431D
:1047200003434B6110BD00BF047B00205079002083
:104730004C790020017B0020007B0020027B0020C0
:1047400048790020001002404A7900209C7D00201A
:104750002DE9F04FA24B8FB01B79D90700F13981B9
:10476000A04BA14A1B7812789A4200F032819F4DEB
:104770002B68002B47D19A4F3B795A0740F12C8187
:10478000FEF7C8FC28602E68002E00F02281984CAD
:1047900094F8018018F0010F00F034810023637059
:1047A0000023D6F82090A36149464FF07C50FCF7D7
:1047B000D9FB3B79804613F00202776A00F06881EA
:1047C0000223B66923753146FCF718FB01463846CB
:1047D000FCF70AFA00218046FCF7AEFC002800F046
:1047E000528149464846FCF701FA3946FCF706FB78
:1047F00001463046FCF7F8F9FBF756FE0CF03EFA9E
:10480000FCF79EF960627B4B7B4A1B78784E0093E5
:104810000C23009903FB0123327831691A722B684B
:1048200003935B6A18460693FCF7DEF900210990B2
:10483000FCF782FC08B100230993336AD6F828B04C
:104840000293F36A58460793B36907990893736A0A
:10485000F46996F814A00A93FCF764FC002800F0B1
:10486000DC814FF00203DBB20B9300270023634D82
:10487000069E049701930595BAF1010F00F0358269
:10488000039B2846196AC0F0CD81BAF1030F40F0AE
:104890004A82FCF7B3FA07462046FBF705FE80463E
:1048A00038468946FBF700FE0022554BFBF750FEC9
:1048B00002460B4640464946FBF796FC8046284692
:1048C0008946FBF7F1FD02460B4640464946FBF799
:1048D0003FFEFCF735F9014681463046FCF784F986
:1048E00059468046FCF728FC30B900214846FCF7C1
:1048F0002DFC002800F04E8259460698FCF774F90A
:10490000FBF7D2FD02460B46FBF770FC0F4606464E
:1049100021460298FCF76AF9FBF7C6FD02460B46F2
:1049200030463946FBF73EFFFCF70AF901270546FA
:10493000D846BA46029C049729460198FCF756F9D6
:10494000019001460598FCF715FC002800F046820E
:1049500001990598FCF748F9089905464046FCF787
:1049600009FC002840F05C81049A214B0AB183F8CD
:1049700014A007B1DC611E4D4046E968FCF73EFA21
:104980008246FBF791FD0BF043FFFCF7D9F8074691
:10499000A868FBF789FD0BF03BFFFCF7D1F839461F
:1049A0008146FCF721F9FCF715FC0C23009ADFF88F
:1049B00048B0534386B22BF803605C46002E40F0AB
:1049C0002182074A1379990740F11C8243F00103C1
:1049D00013710FB0BDE8F08FFEF7A8FBD2E600BF61
:1049E00014CA0020017B0020027B00204C790020AB
:1049F00050790020007B0020807900203BB25F3698
:104A00000000E03F237814220133DBB21F2B08BFE4
:104A1000002323705343AE48318AC2181182316893
:104A2000C900C1507368F068DB005360B368DB00F5
:104A30009360C300D360FCF789F9716AA060FCF74A
:104A400091FA0146E060A348FCF78CFA002363600A
:104A50003B7920619B0702D418F0080F0AD0616AE5
:104A600028F00808E1610846FCF7C8F984F80180DD
:104A7000B06195E6B069FBF717FD0CF0FFF8FCF7A5
:104A80005FF8E0618CE60023C4F818806362BAE640
:104A900058072275A7623ED500239A4663622868AC
:104AA000FEF77EFB01460190FCF7A8F92B688146D2
:104AB0009E6900933146D3F824B0FCF73DFB0028F3
:104AC00041D049463046FCF78FF84146FCF796F94D
:104AD00001465846FCF788F80021A062FCF736FB37
:104AE00020B302232375009B196A0846FCF77EF861
:104AF0005946FCF783F901463046FCF775F8FBF799
:104B0000D3FC0CF0BBF8FCF71BF86378606243F051
:104B10000803637077E6FEF71BFB8246FBF7C4FCD5
:104B20000CF0ACF8FCF70CF86062B8E75146484668
:104B3000FCF75AF84146FCF761F9019BE0622362F9
:104B4000032323755FE651463046FCF74DF8414696
:104B5000FCF754F95946FCF749F84FF07C51FCF743
:104B60004DF900210746FCF705FB002850D03946D7
:104B70005846FCF7FFFA002848D051464846FCF753
:104B800033F84146FCF73AF90146E0623846FCF753
:104B9000F1FAA8B1019B314623624846FCF7C2FAFC
:104BA00008B10123CDE731464846FCF71DF84146E0
:104BB000FCF724F90146A06AFCF716F8A06222E689
:104BC000009BA762186AE762FBF76EFC02460B4681
:104BD000FBF70CFB804638468946FBF765FC02462E
:104BE0000B4640464946FBF7B3FC064650460F4687
:104BF000FBF75AFC02460B4630463946FBF7F6FAFD
:104C00000CF03CF8FBF79CFF2062FCE5022398E7E0
:104C10000023A362636A2362F5E54FF0010322E6F5
:104C2000464629E6FCF7EAF807463046FBF73CFC27
:104C3000CDE90C013846FBF737FC0022264BFBF789
:104C400087FC804620468946FBF72EFC02460B4631
:104C500040464946FBF7CAFA804628468946FBF794
:104C600023FC02460B4640464946FBF771FC0246D0
:104C70000B46DDE90C01FBF7B7FAFBF761FF804655
:104C800001465846FCF776FA40B359460698FBF7BA
:104C9000ABFFFBF709FC02460B46FBF7A7FA0F46F2
:104CA000064621460298FBF7A1FFFBF7FDFB0246F3
:104CB0000B4630463946FBF775FDFBF741FF0127F0
:104CC0000546029CDDF82CA0D846049734E600BFC8
:104CD000307B00200000A03F0000E03F3946204626
:104CE000FBF784FF0446012726E602992846FCF7D5
:104CF00085F801463046FBF777FF07998046FCF7B9
:104D00001BFA00283FF418AE07993046FBF76CFFFA
:104D10000299FCF727F9CDF810A00546DDF81C80B4
:104D20004FF0020A08E6FCF769F821460746FCF74F
:104D300003FA002833D03046FBF7B6FBCDE90C016F
:104D40002046FBF7B1FB804638468946FBF7ACFBB3
:104D50000022774BFBF7FCFB02460B4640464946D8
:104D6000FBF742FA804628468946FBF79DFB024640
:104D70000B4640464946FBF7EBFB02460B46DDE996
:104D80000C01FBF731FAFBF7DBFE08998046FCF7D4
:104D9000F1F920B139462046FBF726FFA2E7089932
:104DA0003046FBF721FFFBF77FFB02460B46FBF784
:104DB0001DFA06460F460A982146FBF717FFFBF738
:104DC00073FB02460B4630463946FBF7EBFCFBF71C
:104DD000B7FE0A9C0546DDF8208084E70999404625
:104DE000FCF7C8F900283FF4BFAD0598FBF75CFB62
:104DF0004DA3D3E90023FBF7F9F9FBF7A1FE0199D5
:104E00000590A7E501986968FBF7F0FE514601900F
:104E10004846FBF7E9FE019B01461846FCF7A2F85D
:104E2000444B454A1B688146B3FBF2F24348019369
:104E30005043FBF78BFF4946FBF7E0FF4049FBF788
:104E4000DDFFFBF731FB0BF0E3FCFBF759FE4FF402
:104E50007A52019BB3FBF2F2904241D20C23009AAA
:104E600003FB024300225A720C23009AB0F5803FE4
:104E700003FB024428BF4FF6FF73324A28BF63602A
:104E80003149137838BF60600B700133DBB2202BDF
:104E900008BF00231370039B5146C3F82480AF6002
:104EA0003846FBF7A1FE4946FBF7A8FFA9696860F1
:104EB0004046FCF737F900283FF452AC0021404649
:104EC000FCF758F9214A137900287FF47FAD13F0DD
:104ED00004017FF47BAD1E4B1960FEF7FFF83FE441
:104EE0004FF4FA52B3FBF2F290420FD20C23009A25
:104EF00003FB024301225A720C23009A5343E21827
:104F0000527A9640D0402BF80360ADE74FF47A62B6
:104F1000B3FBF2F398424FF00C03009A03FB0243F9
:104F200034BF02220322E6E796362F6147F6CB3ED6
:104F30000000E03F0800002080841E0040420F0077
:104F400000007042027B0020007B002014CA002079
:104F50004C790020044B1B7813F07C0F1ABF034BD5
:104F6000D8690020704700BF14CA00205079002083
:104F7000012330B585B08DF8073043780446472BC0
:104F800002D005D8242B47D1A4782CB1032411E0FA
:104F9000542B20D0582BF6E7472B17D0582B0CD08A
:104FA000242B07D17C4B1C7814F0180440F0F080BF
:104FB000FEF737FF204605B030BD774D2B78012B2B
:104FC0001FD10320FEF725FF2C70F3E721460C20AC
:104FD000FEF782FEEEE78378302B0ED100246E4B75
:104FE0001C701B7C0BB91224E4E76C4B93F83C302B
:104FF000022BF8D100F0E0FBDCE7532B03D1FEF7E6
:10500000F3FE0024D6E7502BFBD1634B1B7C002B17
:10501000E9D0FFF7FDF8F4E75F4D2A78012A00F2A6
:10502000B780483B0E2B00F28380DFE803F0188145
:1050300081818181818108813E3B81816300A278E9
:10504000574B592A4FF0000407D05A2A03D0582A48
:105050001C60AFD05C609C60ACE75C60AAE74F4B23
:1050600093F8D530DB0640F195800420A3782870B2
:105070004BB91846FDF776FD6C78002CC1D12C7029
:10508000FFF7D2F996E7E278002A7FF47FAF592B39
:1050900006D05A2BEED0582B7FF478AF0120E9E7E9
:1050A0000220E7E7FEF7CCFEABE7A378532B7FF4B3
:1050B0006DAFE378542B7FF469AF23793D2B7FF4F8
:1050C00065AFA379002B7FF461AF6379242B06D001
:1050D0002A2B0DD0232B7FF459AF022000E00120B2
:1050E000FEF750FF0920FEF794FEFDF7BDFD88E7AF
:1050F000FF20F5E7032303AA0DF1070120468DF8F1
:105100000730FDF7DDFD08B9022453E7039C234D6A
:105110002146D5F8C800FCF72DF838B9D5F8C410E9
:105120002046FCF727F800283FF46BAF132441E733
:1051300002AA0DF107012046FDF7C2FD0028E3D0C9
:105140009DF807305A1CE35C8DF807203D2B7FF457
:105150001DAF03AA0DF107012046FDF7B1FD0028A0
:10516000D2D09DF80730E35C002B7FF40FAF029C98
:105170000C492046FBF7FEFF00287FF407AF2046CE
:10518000FCF728F80399C0B2FEF704FF044611E7C4
:1051900008240FE705240DE714CA00201CC00020D6
:1051A0003CCA002000007F4300207047024A137869
:1051B00018431070704700BF29CA0020024A1378B4
:1051C00023EA00001070704729CA0020014B1870B4
:1051D000704700BF48CA00200022014B1A70704778
:1051E00048CA0020024A137818431070704700BF65
:1051F000D8C90020024A137818431070704700BFC6
:1052000028CA00200022014B1A707047D8C900201C
:105210000022014B1A70704728CA0020FEF74ABDD1
:1052200010B50C4650F82100FBF794FD024B53F8E3
:105230002410FBF797FE10BD1CC0002070B505467A
:105240000E460024E1B23046FFF7EAFF45F824009D
:105250000134032CF6D170BD2DE9FF4789460024A7
:10526000134D061F0DF10408A5F1240AE1B24846CA
:10527000FFF7D6FF04357060E96807462868FBF73A
:10528000B5FC022C014648F8240004D1DAF84000AD
:10529000FBF7ACFC039058F824103846FBF7A4FC4D
:1052A0000134032C46F8040FE0D104B0BDE8F087C8
:1052B000ACBF00202DE9F843804600254FF00009DF
:1052C000144C94F8D670243447FA05F358F8256046
:1052D00013F0010F4946304611D0FBF72DFFB0B94E
:1052E0002168304601F10041FBF744FF78B90135F0
:1052F000032D04F10404E7D10020BDE8F883FBF797
:1053000039FF20B921683046FBF716FFEEE7012090
:10531000BDE8F8831CC000202DE9F041DFF888804B
:105320000C4698F800606EB10021204607F078F82E
:105330002046002107F090F8204609F0EFFC0020FD
:10534000BDE8F0810127144D7F21204607F050F879
:10535000C5F88C60C5F88860A37E294643F04003F9
:10536000A3762046C5F8904088F8007007F058F8FA
:105370000A49204607F058F80949204607F082F804
:105380003A460849204607F09BF83146204607F088
:1053900063F86E60D3E700BFA87D002021550008A8
:1053A0003D540008DD5600089E7D0020024B034A54
:1053B0001B889BB213807047A27D0020A07D002037
:1053C00038B519480AF02EFB00231846174AC2F8D0
:1053D00088301360D1180133802B0872FAD1FFF79F
:1053E000E5FF07F065FD124D2860D8B140F2574245
:1053F000104906F0D7FE2B6804469A7E42F042021E
:105400009A7648B91846FF2106F06EFF0A492860CF
:1054100007F050F8204638BD1946012006F0BEF9C5
:10542000022038BD032038BDBC230108A87D002020
:10543000A47D0020F02701081953000810B5044688
:1054400028B106480AF0EEFA204605F04DFFBDE807
:1054500010400022024B1A70FFF7B2BFC7230108A9
:105460009E7D0020094B10B51B780A4663B1084C9D
:1054700001460123D4F8900009F0CAF8D4F890004E
:10548000BDE8104009F04ABC10BD00BF9E7D002061
:10549000A87D00200A490B4A0B8812889BB292B261
:1054A00093420AD0084AD05C40F6010201339BB215
:1054B000934208BF00230B807047FF20704700BF56
:1054C000A27D0020A07D0020B8C1002070B5124E42
:1054D0000021D6F890400025204606F0A1FF204686
:1054E000002106F0B9FF2046002106F09DFF20466E
:1054F000002106F0C7FF00222046114606F0E0FF1B
:105500002046C6F8905007F0EBFA044B1D70BDE83A
:105510007040FFF755BF00BFA87D00209E7D002092
:105520002DE9F0410E4614461D46002869D0002B97
:1055300067D1002A00F0BF801189304606F004FFD1
:1055400060680278952A76D029D8842A69D017D83D
:105550003F2A59D00CD8212A5BD0262A4CD022468B
:10556000574D40F60107DFF86CE1DFF86CC1A0E0B1
:105570005E2A50D07E2AF2D10220FFF717FE3DE0CE
:10558000922A54D005D8902A4DD0912AE7D10220F2
:105590004AE0932A4DD0942AE1D1102044E09C2A7D
:1055A00053D00ED8992A4AD005D8962A45D0972AA2
:1055B000D5D1802038E09A2A45D09B2ACFD104202B
:1055C0003EE0A02A45D005D89D2A40D09E2AC6D1CB
:1055D000202035E0A22A40D03DD3A32ABFD1394DA7
:1055E0003949D5F8B0603046FBF7C4FD30B13649D3
:1055F0003046FBF7F9FA3DE0FDF736FB204606F0B2
:1056000091FA0020BDE8F08129460220FEF764FBF4
:10561000F4E70820B1E700222C4B1A7001225A70DF
:10562000ECE72020A9E70120FFF7DCFDE6E70420F6
:10563000FAE70820F8E72020F6E74020F4E7012009
:10564000FFF7D8FDDAE70220FAE70820F8E7102094
:10565000F6E74020F4E78020F2E71A4D1C49D5F820
:10566000B0603046FBF768FD0028C7D016493046C9
:10567000FBF7BCFAC5F8B000C0E711F8018BB8F130
:105680007E0F0FD82B88BEF8006001339BB2BB425F
:1056900008BF0023B6B29E421FBF2E882B80B6B231
:1056A0000CF8068056890B1AB342E6D31268002A1A
:1056B000A4D00146F6E7C0F88820FFF707FFA0E76F
:1056C000A07D00201CC0002000007A4414CA0020E5
:1056D00000504347A27D0020B8C1002038B50446E1
:1056E00000B3D0F88850D0F8900080B17DB1AAB254
:1056F000012304F1080108F08BFF2368D4F890001F
:105700001D44256009F00AFB0023C4F88830D4F852
:10571000900030B125681DB9606810B1FFF7D6FE62
:10572000002038BD084607F0F3FA6FF00C0038BDD2
:1057300070B588B01422002103A80AF0F7F80023FE
:10574000184E0093019302933378022B27D0FEF773
:10575000B1FA15496846FFF771FD0023134D029316
:1057600003930493124B9DE8070085E807009DF81A
:1057700014209B6942F0010203A9684606938DF844
:105780001420FCF7F5FF1420FDF720FBFEF756FD73
:10579000FEF790FA3378002BFDD1FBF7E5FE08B059
:1057A00070BD00BF14CA00203CCA0020C8C9002038
:1057B00088BF0020000000002DE9F041002488B0DF
:1057C0001422002103A80AF0B1F84D4B00941B7875
:1057D0000194022B02947BD04A4F97F84C30002B57
:1057E00076D0002607F140016846FFF727FD9DF8B7
:1057F0001430DFF8308143F001038DF81430D8F80D
:10580000183003A968460693029603960496FCF79F
:10581000AFFFB86CFBF79EFAB968FBF7A3FB3A49F8
:10582000FBF7E4F9394D03A902906846FCF7A0FFA5
:10583000FEF740FA0298294603958DF81440FBF7CD
:10584000D3F92246029003A96846FDF7A9F9012879
:105850003ED12F496846FFF7F1FC0298FAF724FE83
:1058600025A3D3E90023FAF7C1FCFBF769F903A9E3
:10587000029068460395FCF77BFF264B0298294669
:105880000393FBF7B1F92246029003A96846FDF79E
:1058900087F901281CD1204B204A1978D9B1926888
:1058A0001C709A600520FDF791FA9DF8143003A949
:1058B00043F0010368468DF814300296FCF758FF58
:1058C00003A91748FCF754FFFEF7F4F9FBF74CFE69
:1058D00008B0BDE8F0819968926888F80500521A0E
:1058E0005A601046FBF736FAB968FBF73BFBC8F87D
:1058F0004000D7E7AFF30080CDCCCCCCCCCCFC3F84
:1059000014CA00201CC000200000B442000048431C
:105910003CCA002000007041BCC9002030CA0020F1
:10592000C8C9002088BF0020704700004FF6FF71F3
:10593000064A904201D90120704703889BB28B42EE
:1059400001D10430F5E70020704700BFFF3F000899
:1059500038B54FF000631B88054698B2194B1B8879
:105960009BB26BB94EF6EE63C31A18BF01236FF0FA
:10597000784003F500540133A40300EB83331AE0AD
:10598000E8B94EF6EE629A1A53425341EFE72268A5
:1059900001320FD10A4600232146012001F054F9BB
:1059A00008B180B238BD2A460023A11C012001F0B5
:1059B0004BF9F6E704349C42E9D3802038BDAB2094
:1059C00038BD00BF00400008002310B586B000932A
:1059D0000193012202234FF0006003930492059388
:1059E000FFF7A4FFA0B1002200234FF000610120C7
:1059F00001F02AF9044690B903230A480393FFF7FC
:105A000095FF60B9694601A801F0CEF9044606E0A9
:105A1000694601A801F0C8F904460028E3D02046F1
:105A200006B010BD004000084FF000630F4A1B880D
:105A300012889BB210B592B28BB17AB1AB2010BD77
:105A40001488A4B2844204D132F8023C00200B80B6
:105A500010BD043A9A42F3D8012010BD01239C03E3
:105A6000034A04F1006322440233F3E700400008D4
:105A7000FE3F00084FF000602DE9F04701250021AE
:105A80000488614A86B0A3B2148804954EF6EE6588
:105A9000009101910221AB42A4B20391059128D05B
:105AA0004FF6FF718B4205D00BB9002C6CD1FFF77C
:105AB0008BFF1BE044B9FFF739FF002800F09F80FF
:105AC000002006B0BDE8F087AC42F0D1FFF72EFF12
:105AD00030B9694601A801F067F908B180B2F0E772
